{
  "contractName": "ProposalsVoting",
  "abi": [
    {
      "anonymous": false,
      "inputs": [
        {
          "indexed": false,
          "internalType": "address",
          "name": "user",
          "type": "address"
        }
      ],
      "name": "AutorizePropose",
      "type": "event"
    },
    {
      "anonymous": false,
      "inputs": [
        {
          "indexed": false,
          "internalType": "address",
          "name": "user",
          "type": "address"
        },
        {
          "indexed": false,
          "internalType": "uint256",
          "name": "proposal",
          "type": "uint256"
        }
      ],
      "name": "AutorizeUserToVoteInProposal",
      "type": "event"
    },
    {
      "anonymous": false,
      "inputs": [
        {
          "indexed": false,
          "internalType": "address",
          "name": "user",
          "type": "address"
        },
        {
          "indexed": false,
          "internalType": "string",
          "name": "proposal",
          "type": "string"
        }
      ],
      "name": "IncludeProposal",
      "type": "event"
    },
    {
      "anonymous": false,
      "inputs": [
        {
          "indexed": true,
          "internalType": "address",
          "name": "previousOwner",
          "type": "address"
        },
        {
          "indexed": true,
          "internalType": "address",
          "name": "newOwner",
          "type": "address"
        }
      ],
      "name": "OwnershipTransferred",
      "type": "event"
    },
    {
      "anonymous": false,
      "inputs": [
        {
          "indexed": false,
          "internalType": "address",
          "name": "user",
          "type": "address"
        },
        {
          "indexed": false,
          "internalType": "uint256",
          "name": "proposal",
          "type": "uint256"
        }
      ],
      "name": "Vote",
      "type": "event"
    },
    {
      "inputs": [
        {
          "internalType": "address",
          "name": "",
          "type": "address"
        }
      ],
      "name": "autorizedUsersToPropose",
      "outputs": [
        {
          "internalType": "bool",
          "name": "",
          "type": "bool"
        }
      ],
      "stateMutability": "view",
      "type": "function"
    },
    {
      "inputs": [],
      "name": "owner",
      "outputs": [
        {
          "internalType": "address",
          "name": "",
          "type": "address"
        }
      ],
      "stateMutability": "view",
      "type": "function"
    },
    {
      "inputs": [
        {
          "internalType": "address",
          "name": "",
          "type": "address"
        },
        {
          "internalType": "uint256",
          "name": "",
          "type": "uint256"
        }
      ],
      "name": "proposalAutorizarions",
      "outputs": [
        {
          "internalType": "bool",
          "name": "",
          "type": "bool"
        }
      ],
      "stateMutability": "view",
      "type": "function"
    },
    {
      "inputs": [
        {
          "internalType": "address",
          "name": "",
          "type": "address"
        },
        {
          "internalType": "uint256",
          "name": "",
          "type": "uint256"
        }
      ],
      "name": "proposalUserVotes",
      "outputs": [
        {
          "internalType": "bool",
          "name": "",
          "type": "bool"
        }
      ],
      "stateMutability": "view",
      "type": "function"
    },
    {
      "inputs": [
        {
          "internalType": "uint256",
          "name": "",
          "type": "uint256"
        }
      ],
      "name": "proposals",
      "outputs": [
        {
          "internalType": "string",
          "name": "",
          "type": "string"
        }
      ],
      "stateMutability": "view",
      "type": "function"
    },
    {
      "inputs": [],
      "name": "renounceOwnership",
      "outputs": [],
      "stateMutability": "nonpayable",
      "type": "function"
    },
    {
      "inputs": [
        {
          "internalType": "address",
          "name": "newOwner",
          "type": "address"
        }
      ],
      "name": "transferOwnership",
      "outputs": [],
      "stateMutability": "nonpayable",
      "type": "function"
    },
    {
      "inputs": [
        {
          "internalType": "uint256",
          "name": "",
          "type": "uint256"
        }
      ],
      "name": "votes",
      "outputs": [
        {
          "internalType": "uint256",
          "name": "",
          "type": "uint256"
        }
      ],
      "stateMutability": "view",
      "type": "function"
    },
    {
      "inputs": [
        {
          "internalType": "address",
          "name": "_user",
          "type": "address"
        }
      ],
      "name": "autorizePropose",
      "outputs": [],
      "stateMutability": "nonpayable",
      "type": "function"
    },
    {
      "inputs": [
        {
          "internalType": "string",
          "name": "_proposal",
          "type": "string"
        }
      ],
      "name": "includeProposal",
      "outputs": [],
      "stateMutability": "nonpayable",
      "type": "function"
    },
    {
      "inputs": [
        {
          "internalType": "uint256",
          "name": "_proposal",
          "type": "uint256"
        },
        {
          "internalType": "address",
          "name": "_user",
          "type": "address"
        }
      ],
      "name": "autorizeUserToVoteInProposal",
      "outputs": [],
      "stateMutability": "nonpayable",
      "type": "function"
    },
    {
      "inputs": [
        {
          "internalType": "uint256",
          "name": "_proposal",
          "type": "uint256"
        }
      ],
      "name": "vote",
      "outputs": [],
      "stateMutability": "nonpayable",
      "type": "function"
    },
    {
      "inputs": [],
      "name": "getProposalVotes",
      "outputs": [
        {
          "components": [
            {
              "internalType": "string",
              "name": "proposal",
              "type": "string"
            },
            {
              "internalType": "uint256",
              "name": "votes",
              "type": "uint256"
            }
          ],
          "internalType": "struct Proposal[]",
          "name": "",
          "type": "tuple[]"
        }
      ],
      "stateMutability": "view",
      "type": "function"
    }
  ],
  "bytecode": "0x608060405234801561001057600080fd5b5061002d61002261003260201b60201c565b61003a60201b60201c565b6100fe565b600033905090565b60008060009054906101000a900473ffffffffffffffffffffffffffffffffffffffff169050816000806101000a81548173ffffffffffffffffffffffffffffffffffffffff021916908373ffffffffffffffffffffffffffffffffffffffff1602179055508173ffffffffffffffffffffffffffffffffffffffff168173ffffffffffffffffffffffffffffffffffffffff167f8be0079c531659141344cd1fd0a4f28419497f9722a3daafe3b4186f6b6457e060405160405180910390a35050565b6118ca8061010d6000396000f3fe608060405234801561001057600080fd5b50600436106100cf5760003560e01c80633b65760a1161008c5780637fda96bf116100665780637fda96bf146102245780638da5cb5b146102405780639f84fa2f1461025e578063f2fde38b1461027a576100cf565b80633b65760a146101ba5780635df81330146101ea578063715018a61461021a576100cf565b80630121b93f146100d4578063013cf08b146100f05780630a9861b5146101205780630bbd91eb14610150578063213b556b1461016c5780633b2a06521461018a575b600080fd5b6100ee60048036038101906100e99190610e60565b610296565b005b61010a60048036038101906101059190610e60565b6104a5565b6040516101179190610f26565b60405180910390f35b61013a60048036038101906101359190610fa6565b610551565b6040516101479190611001565b60405180910390f35b61016a6004803603810190610165919061101c565b610580565b005b6101746106f6565b60405161018191906111b4565b60405180910390f35b6101a4600480360381019061019f9190610fa6565b61086c565b6040516101b19190611001565b60405180910390f35b6101d460048036038101906101cf91906111d6565b61089b565b6040516101e19190611001565b60405180910390f35b61020460048036038101906101ff9190610e60565b6108bb565b6040516102119190611212565b60405180910390f35b6102226108d3565b005b61023e60048036038101906102399190611362565b61095b565b005b610248610a5f565b60405161025591906113ba565b60405180910390f35b610278600480360381019061027391906111d6565b610a88565b005b610294600480360381019061028f91906111d6565b610b95565b005b80600260003373ffffffffffffffffffffffffffffffffffffffff1673ffffffffffffffffffffffffffffffffffffffff168152602001908152602001600020600082815260200190815260200160002060009054906101000a900460ff16610334576040517f08c379a000000000000000000000000000000000000000000000000000000000815260040161032b90611447565b60405180910390fd5b81600360003373ffffffffffffffffffffffffffffffffffffffff1673ffffffffffffffffffffffffffffffffffffffff168152602001908152602001600020600082815260200190815260200160002060009054906101000a900460ff16156103d3576040517f08c379a00000000000000000000000000000000000000000000000000000000081526004016103ca906114b3565b60405180910390fd5b60016005600085815260200190815260200160002060008282546103f79190611502565b925050819055506001600360003373ffffffffffffffffffffffffffffffffffffffff1673ffffffffffffffffffffffffffffffffffffffff168152602001908152602001600020600085815260200190815260200160002060006101000a81548160ff0219169083151502179055507ff668ead05c744b9178e571d2edb452e72baf6529c8d72160e64e59b50d865bd03384604051610498929190611558565b60405180910390a1505050565b600481815481106104b557600080fd5b9060005260206000200160009150905080546104d0906115b0565b80601f01602080910402602001604051908101604052809291908181526020018280546104fc906115b0565b80156105495780601f1061051e57610100808354040283529160200191610549565b820191906000526020600020905b81548152906001019060200180831161052c57829003601f168201915b505050505081565b60036020528160005260406000206020528060005260406000206000915091509054906101000a900460ff1681565b610588610c8d565b73ffffffffffffffffffffffffffffffffffffffff166105a6610a5f565b73ffffffffffffffffffffffffffffffffffffffff16146105fc576040517f08c379a00000000000000000000000000000000000000000000000000000000081526004016105f39061162e565b60405180910390fd5b600160048054905061060e919061164e565b821115610650576040517f08c379a0000000000000000000000000000000000000000000000000000000008152600401610647906116ce565b60405180910390fd5b6001600260008373ffffffffffffffffffffffffffffffffffffffff1673ffffffffffffffffffffffffffffffffffffffff168152602001908152602001600020600084815260200190815260200160002060006101000a81548160ff0219169083151502179055507fc8d856acb0aea482a3609dcef90a6562bdf37d894165507bada7a82366ae7b5081836040516106ea929190611558565b60405180910390a15050565b6060600060048054905067ffffffffffffffff81111561071957610718611237565b5b60405190808252806020026020018201604052801561075257816020015b61073f610d59565b8152602001906001900390816107375790505b50905060005b60048054905081101561086457604051806040016040528060048381548110610784576107836116ee565b5b906000526020600020018054610799906115b0565b80601f01602080910402602001604051908101604052809291908181526020018280546107c5906115b0565b80156108125780601f106107e757610100808354040283529160200191610812565b820191906000526020600020905b8154815290600101906020018083116107f557829003601f168201915b505050505081526020016005600084815260200190815260200160002054815250828281518110610846576108456116ee565b5b6020026020010181905250808061085c9061171d565b915050610758565b508091505090565b60026020528160005260406000206020528060005260406000206000915091509054906101000a900460ff1681565b60016020528060005260406000206000915054906101000a900460ff1681565b60056020528060005260406000206000915090505481565b6108db610c8d565b73ffffffffffffffffffffffffffffffffffffffff166108f9610a5f565b73ffffffffffffffffffffffffffffffffffffffff161461094f576040517f08c379a00000000000000000000000000000000000000000000000000000000081526004016109469061162e565b60405180910390fd5b6109596000610c95565b565b600160003373ffffffffffffffffffffffffffffffffffffffff1673ffffffffffffffffffffffffffffffffffffffff16815260200190815260200160002060009054906101000a900460ff166109e7576040517f08c379a00000000000000000000000000000000000000000000000000000000081526004016109de906117b2565b60405180910390fd5b600481908060018154018082558091505060019003906000526020600020016000909190919091509080519060200190610a22929190610d73565b507f748c79ce21dbb8fcc4e5ab538a8c267c08b8107aa8fa1f4090548cfe22801b663382604051610a549291906117d2565b60405180910390a150565b60008060009054906101000a900473ffffffffffffffffffffffffffffffffffffffff16905090565b610a90610c8d565b73ffffffffffffffffffffffffffffffffffffffff16610aae610a5f565b73ffffffffffffffffffffffffffffffffffffffff1614610b04576040517f08c379a0000000000000000000000000000000000000000000000000000000008152600401610afb9061162e565b60405180910390fd5b60018060008373ffffffffffffffffffffffffffffffffffffffff1673ffffffffffffffffffffffffffffffffffffffff16815260200190815260200160002060006101000a81548160ff0219169083151502179055507f195b625c2a1c06b15b61a2cfbc2b6085caf543977671323f044de6bdd81e330a81604051610b8a91906113ba565b60405180910390a150565b610b9d610c8d565b73ffffffffffffffffffffffffffffffffffffffff16610bbb610a5f565b73ffffffffffffffffffffffffffffffffffffffff1614610c11576040517f08c379a0000000000000000000000000000000000000000000000000000000008152600401610c089061162e565b60405180910390fd5b600073ffffffffffffffffffffffffffffffffffffffff168173ffffffffffffffffffffffffffffffffffffffff161415610c81576040517f08c379a0000000000000000000000000000000000000000000000000000000008152600401610c7890611874565b60405180910390fd5b610c8a81610c95565b50565b600033905090565b60008060009054906101000a900473ffffffffffffffffffffffffffffffffffffffff169050816000806101000a81548173ffffffffffffffffffffffffffffffffffffffff021916908373ffffffffffffffffffffffffffffffffffffffff1602179055508173ffffffffffffffffffffffffffffffffffffffff168173ffffffffffffffffffffffffffffffffffffffff167f8be0079c531659141344cd1fd0a4f28419497f9722a3daafe3b4186f6b6457e060405160405180910390a35050565b604051806040016040528060608152602001600081525090565b828054610d7f906115b0565b90600052602060002090601f016020900481019282610da15760008555610de8565b82601f10610dba57805160ff1916838001178555610de8565b82800160010185558215610de8579182015b82811115610de7578251825591602001919060010190610dcc565b5b509050610df59190610df9565b5090565b5b80821115610e12576000816000905550600101610dfa565b5090565b6000604051905090565b600080fd5b600080fd5b6000819050919050565b610e3d81610e2a565b8114610e4857600080fd5b50565b600081359050610e5a81610e34565b92915050565b600060208284031215610e7657610e75610e20565b5b6000610e8484828501610e4b565b91505092915050565b600081519050919050565b600082825260208201905092915050565b60005b83811015610ec7578082015181840152602081019050610eac565b83811115610ed6576000848401525b50505050565b6000601f19601f8301169050919050565b6000610ef882610e8d565b610f028185610e98565b9350610f12818560208601610ea9565b610f1b81610edc565b840191505092915050565b60006020820190508181036000830152610f408184610eed565b905092915050565b600073ffffffffffffffffffffffffffffffffffffffff82169050919050565b6000610f7382610f48565b9050919050565b610f8381610f68565b8114610f8e57600080fd5b50565b600081359050610fa081610f7a565b92915050565b60008060408385031215610fbd57610fbc610e20565b5b6000610fcb85828601610f91565b9250506020610fdc85828601610e4b565b9150509250929050565b60008115159050919050565b610ffb81610fe6565b82525050565b60006020820190506110166000830184610ff2565b92915050565b6000806040838503121561103357611032610e20565b5b600061104185828601610e4b565b925050602061105285828601610f91565b9150509250929050565b600081519050919050565b600082825260208201905092915050565b6000819050602082019050919050565b600082825260208201905092915050565b60006110a482610e8d565b6110ae8185611088565b93506110be818560208601610ea9565b6110c781610edc565b840191505092915050565b6110db81610e2a565b82525050565b600060408301600083015184820360008601526110fe8282611099565b915050602083015161111360208601826110d2565b508091505092915050565b600061112a83836110e1565b905092915050565b6000602082019050919050565b600061114a8261105c565b6111548185611067565b93508360208202850161116685611078565b8060005b858110156111a25784840389528151611183858261111e565b945061118e83611132565b925060208a0199505060018101905061116a565b50829750879550505050505092915050565b600060208201905081810360008301526111ce818461113f565b905092915050565b6000602082840312156111ec576111eb610e20565b5b60006111fa84828501610f91565b91505092915050565b61120c81610e2a565b82525050565b60006020820190506112276000830184611203565b92915050565b600080fd5b600080fd5b7f4e487b7100000000000000000000000000000000000000000000000000000000600052604160045260246000fd5b61126f82610edc565b810181811067ffffffffffffffff8211171561128e5761128d611237565b5b80604052505050565b60006112a1610e16565b90506112ad8282611266565b919050565b600067ffffffffffffffff8211156112cd576112cc611237565b5b6112d682610edc565b9050602081019050919050565b82818337600083830152505050565b6000611305611300846112b2565b611297565b90508281526020810184848401111561132157611320611232565b5b61132c8482856112e3565b509392505050565b600082601f8301126113495761134861122d565b5b81356113598482602086016112f2565b91505092915050565b60006020828403121561137857611377610e20565b5b600082013567ffffffffffffffff81111561139657611395610e25565b5b6113a284828501611334565b91505092915050565b6113b481610f68565b82525050565b60006020820190506113cf60008301846113ab565b92915050565b7f55736572206973206e6f74206175746f72697a656420746f20766f746520696e60008201527f20746869732050726f706f73616c000000000000000000000000000000000000602082015250565b6000611431602e83610e98565b915061143c826113d5565b604082019050919050565b6000602082019050818103600083015261146081611424565b9050919050565b7f596f75206861766520616c726561647920766f74656400000000000000000000600082015250565b600061149d601683610e98565b91506114a882611467565b602082019050919050565b600060208201905081810360008301526114cc81611490565b9050919050565b7f4e487b7100000000000000000000000000000000000000000000000000000000600052601160045260246000fd5b600061150d82610e2a565b915061151883610e2a565b9250827fffffffffffffffffffffffffffffffffffffffffffffffffffffffffffffffff0382111561154d5761154c6114d3565b5b828201905092915050565b600060408201905061156d60008301856113ab565b61157a6020830184611203565b9392505050565b7f4e487b7100000000000000000000000000000000000000000000000000000000600052602260045260246000fd5b600060028204905060018216806115c857607f821691505b602082108114156115dc576115db611581565b5b50919050565b7f4f776e61626c653a2063616c6c6572206973206e6f7420746865206f776e6572600082015250565b6000611618602083610e98565b9150611623826115e2565b602082019050919050565b600060208201905081810360008301526116478161160b565b9050919050565b600061165982610e2a565b915061166483610e2a565b925082821015611677576116766114d3565b5b828203905092915050565b7f546869732070726f706f73616c206e6f74206578697374000000000000000000600082015250565b60006116b8601783610e98565b91506116c382611682565b602082019050919050565b600060208201905081810360008301526116e7816116ab565b9050919050565b7f4e487b7100000000000000000000000000000000000000000000000000000000600052603260045260246000fd5b600061172882610e2a565b91507fffffffffffffffffffffffffffffffffffffffffffffffffffffffffffffffff82141561175b5761175a6114d3565b5b600182019050919050565b7f55736572206973206e6f74206175746f72697a656420746f2070726f706f7365600082015250565b600061179c602083610e98565b91506117a782611766565b602082019050919050565b600060208201905081810360008301526117cb8161178f565b9050919050565b60006040820190506117e760008301856113ab565b81810360208301526117f98184610eed565b90509392505050565b7f4f776e61626c653a206e6577206f776e657220697320746865207a65726f206160008201527f6464726573730000000000000000000000000000000000000000000000000000602082015250565b600061185e602683610e98565b915061186982611802565b604082019050919050565b6000602082019050818103600083015261188d81611851565b905091905056fea2646970667358221220c1bf08700aa64d8c57bd5622078d59c70bba82526a4e477fbfd4e1a4b2c0b43664736f6c634300080b0033",
  "immutableReferences": {},
  "source": "// SPDX-License-Identifier: MIT\npragma solidity >=0.4.22 <0.9.0;\n\nimport \"../node_modules/@openzeppelin/contracts/access/Ownable.sol\";\n\nstruct Proposal {\n    string proposal;\n    uint256 votes;\n}\n\ncontract ProposalsVoting is Ownable {\n    mapping(address => bool) public autorizedUsersToPropose;\n    mapping(address => mapping(uint256 => bool)) public proposalAutorizarions;\n    mapping(address => mapping(uint256 => bool)) public proposalUserVotes;\n    string[] public proposals;\n    mapping(uint256 => uint256) public votes;\n\n    event AutorizePropose(address user);\n    event IncludeProposal(address user, string proposal);\n    event AutorizeUserToVoteInProposal(address user, uint256 proposal);\n    event Vote(address user, uint256 proposal);\n\n    modifier onlyAutorizedToPropose() {\n        require(\n            autorizedUsersToPropose[msg.sender],\n            \"User is not autorized to propose\"\n        );\n        _;\n    }\n\n    modifier onlyAutorizedToVote(uint256 _proposal) {\n        require(\n            proposalAutorizarions[msg.sender][_proposal],\n            \"User is not autorized to vote in this Proposal\"\n        );\n        _;\n    }\n\n    modifier justOneVoteByProposal(uint256 _proposal) {\n        require(\n            !proposalUserVotes[msg.sender][_proposal],\n            \"You have already voted\"\n        );\n        _;\n    }\n\n    /* this autorization is necessary to add proposal, user can vote if autorized vote even though don't can propose */\n    function autorizePropose(address _user) public onlyOwner {\n        autorizedUsersToPropose[_user] = true;\n        emit AutorizePropose(_user);\n    }\n\n    function includeProposal(string memory _proposal)\n        public\n        onlyAutorizedToPropose\n    {\n        proposals.push(_proposal);\n        emit IncludeProposal(msg.sender, _proposal);\n    }\n\n    /* this autorization to voto don't autorize add _proposal */\n    function autorizeUserToVoteInProposal(uint256 _proposal, address _user)\n        public\n        onlyOwner\n    {\n        require(_proposal <= (proposals.length - 1), \"This proposal not exist\");\n        proposalAutorizarions[_user][_proposal] = true;\n        emit AutorizeUserToVoteInProposal(_user, _proposal);\n    }\n\n    function vote(uint256 _proposal)\n        public\n        onlyAutorizedToVote(_proposal)\n        justOneVoteByProposal(_proposal)\n    {\n        votes[_proposal] += 1;\n        proposalUserVotes[msg.sender][_proposal] = true;\n        emit Vote(msg.sender, _proposal);\n    }\n\n    function getProposalVotes() public view returns (Proposal[] memory) {\n        Proposal[] memory listProposals = new Proposal[](proposals.length);\n        for (uint256 i = 0; i < proposals.length; i++) {\n            listProposals[i] = Proposal(proposals[i], votes[i]);\n        }\n        return listProposals;\n    }\n}\n",
  "sourcePath": "/home/patane/DEV/web3/StudyDAO/contracts/ProposalsVoting.sol",
  "compiler": {
    "name": "solc",
    "version": "0.8.11+commit.d7f03943.Emscripten.clang"
  },
  "schemaVersion": "3.4.4",
  "updatedAt": "2022-01-28T10:24:42.528Z",
  "devdoc": {
    "kind": "dev",
    "methods": {
      "owner()": {
        "details": "Returns the address of the current owner."
      },
      "renounceOwnership()": {
        "details": "Leaves the contract without owner. It will not be possible to call `onlyOwner` functions anymore. Can only be called by the current owner. NOTE: Renouncing ownership will leave the contract without an owner, thereby removing any functionality that is only available to the owner."
      },
      "transferOwnership(address)": {
        "details": "Transfers ownership of the contract to a new account (`newOwner`). Can only be called by the current owner."
      }
    },
    "version": 1
  },
  "userdoc": {
    "kind": "user",
    "methods": {},
    "version": 1
  }
}