{
  "contractName": "ProposalsVoting",
  "abi": [
    {
      "anonymous": false,
      "inputs": [
        {
          "indexed": false,
          "internalType": "address",
          "name": "user",
          "type": "address"
        }
      ],
      "name": "AutorizePropose",
      "type": "event"
    },
    {
      "anonymous": false,
      "inputs": [
        {
          "indexed": false,
          "internalType": "address",
          "name": "user",
          "type": "address"
        },
        {
          "indexed": false,
          "internalType": "uint256",
          "name": "proposal",
          "type": "uint256"
        }
      ],
      "name": "AutorizeUserToVoteInProposal",
      "type": "event"
    },
    {
      "anonymous": false,
      "inputs": [
        {
          "indexed": false,
          "internalType": "address",
          "name": "user",
          "type": "address"
        },
        {
          "indexed": false,
          "internalType": "string",
          "name": "proposal",
          "type": "string"
        }
      ],
      "name": "IncludeProposal",
      "type": "event"
    },
    {
      "anonymous": false,
      "inputs": [
        {
          "indexed": true,
          "internalType": "address",
          "name": "previousOwner",
          "type": "address"
        },
        {
          "indexed": true,
          "internalType": "address",
          "name": "newOwner",
          "type": "address"
        }
      ],
      "name": "OwnershipTransferred",
      "type": "event"
    },
    {
      "anonymous": false,
      "inputs": [
        {
          "indexed": false,
          "internalType": "address",
          "name": "user",
          "type": "address"
        },
        {
          "indexed": false,
          "internalType": "uint256",
          "name": "proposal",
          "type": "uint256"
        }
      ],
      "name": "Vote",
      "type": "event"
    },
    {
      "inputs": [
        {
          "internalType": "address",
          "name": "",
          "type": "address"
        }
      ],
      "name": "autorizedUsersToPropose",
      "outputs": [
        {
          "internalType": "bool",
          "name": "",
          "type": "bool"
        }
      ],
      "stateMutability": "view",
      "type": "function"
    },
    {
      "inputs": [],
      "name": "owner",
      "outputs": [
        {
          "internalType": "address",
          "name": "",
          "type": "address"
        }
      ],
      "stateMutability": "view",
      "type": "function"
    },
    {
      "inputs": [
        {
          "internalType": "address",
          "name": "",
          "type": "address"
        },
        {
          "internalType": "uint256",
          "name": "",
          "type": "uint256"
        }
      ],
      "name": "proposalAutorizarions",
      "outputs": [
        {
          "internalType": "bool",
          "name": "",
          "type": "bool"
        }
      ],
      "stateMutability": "view",
      "type": "function"
    },
    {
      "inputs": [
        {
          "internalType": "address",
          "name": "",
          "type": "address"
        },
        {
          "internalType": "uint256",
          "name": "",
          "type": "uint256"
        }
      ],
      "name": "proposalUserVotes",
      "outputs": [
        {
          "internalType": "bool",
          "name": "",
          "type": "bool"
        }
      ],
      "stateMutability": "view",
      "type": "function"
    },
    {
      "inputs": [
        {
          "internalType": "uint256",
          "name": "",
          "type": "uint256"
        }
      ],
      "name": "proposals",
      "outputs": [
        {
          "internalType": "string",
          "name": "",
          "type": "string"
        }
      ],
      "stateMutability": "view",
      "type": "function"
    },
    {
      "inputs": [],
      "name": "renounceOwnership",
      "outputs": [],
      "stateMutability": "nonpayable",
      "type": "function"
    },
    {
      "inputs": [
        {
          "internalType": "address",
          "name": "newOwner",
          "type": "address"
        }
      ],
      "name": "transferOwnership",
      "outputs": [],
      "stateMutability": "nonpayable",
      "type": "function"
    },
    {
      "inputs": [
        {
          "internalType": "uint256",
          "name": "",
          "type": "uint256"
        }
      ],
      "name": "votes",
      "outputs": [
        {
          "internalType": "uint256",
          "name": "",
          "type": "uint256"
        }
      ],
      "stateMutability": "view",
      "type": "function"
    },
    {
      "inputs": [
        {
          "internalType": "address",
          "name": "_user",
          "type": "address"
        }
      ],
      "name": "autorizePropose",
      "outputs": [],
      "stateMutability": "nonpayable",
      "type": "function"
    },
    {
      "inputs": [
        {
          "internalType": "string",
          "name": "_proposal",
          "type": "string"
        }
      ],
      "name": "includeProposal",
      "outputs": [],
      "stateMutability": "nonpayable",
      "type": "function"
    },
    {
      "inputs": [
        {
          "internalType": "uint256",
          "name": "_proposal",
          "type": "uint256"
        },
        {
          "internalType": "address",
          "name": "_user",
          "type": "address"
        }
      ],
      "name": "autorizeUserToVoteInProposal",
      "outputs": [],
      "stateMutability": "nonpayable",
      "type": "function"
    },
    {
      "inputs": [
        {
          "internalType": "uint256",
          "name": "_proposal",
          "type": "uint256"
        }
      ],
      "name": "vote",
      "outputs": [],
      "stateMutability": "nonpayable",
      "type": "function"
    },
    {
      "inputs": [],
      "name": "getPoposalVotes",
      "outputs": [
        {
          "components": [
            {
              "internalType": "string",
              "name": "proposal",
              "type": "string"
            },
            {
              "internalType": "uint256",
              "name": "votes",
              "type": "uint256"
            }
          ],
          "internalType": "struct Proposal[]",
          "name": "",
          "type": "tuple[]"
        }
      ],
      "stateMutability": "view",
      "type": "function"
    }
  ],
  "bytecode": "0x608060405234801561001057600080fd5b5061002d61002261003260201b60201c565b61003a60201b60201c565b6100fe565b600033905090565b60008060009054906101000a900473ffffffffffffffffffffffffffffffffffffffff169050816000806101000a81548173ffffffffffffffffffffffffffffffffffffffff021916908373ffffffffffffffffffffffffffffffffffffffff1602179055508173ffffffffffffffffffffffffffffffffffffffff168173ffffffffffffffffffffffffffffffffffffffff167f8be0079c531659141344cd1fd0a4f28419497f9722a3daafe3b4186f6b6457e060405160405180910390a35050565b6118ca8061010d6000396000f3fe608060405234801561001057600080fd5b50600436106100cf5760003560e01c80635df813301161008c5780638da5cb5b116100665780638da5cb5b146102225780639f84fa2f14610240578063db38bc211461025c578063f2fde38b1461027a576100cf565b80635df81330146101cc578063715018a6146101fc5780637fda96bf14610206576100cf565b80630121b93f146100d4578063013cf08b146100f05780630a9861b5146101205780630bbd91eb146101505780633b2a06521461016c5780633b65760a1461019c575b600080fd5b6100ee60048036038101906100e99190610e60565b610296565b005b61010a60048036038101906101059190610e60565b6104a5565b6040516101179190610f26565b60405180910390f35b61013a60048036038101906101359190610fa6565b610551565b6040516101479190611001565b60405180910390f35b61016a6004803603810190610165919061101c565b610580565b005b61018660048036038101906101819190610fa6565b6106f6565b6040516101939190611001565b60405180910390f35b6101b660048036038101906101b1919061105c565b610725565b6040516101c39190611001565b60405180910390f35b6101e660048036038101906101e19190610e60565b610745565b6040516101f39190611098565b60405180910390f35b61020461075d565b005b610220600480360381019061021b91906111e8565b6107e5565b005b61022a6108e9565b6040516102379190611240565b60405180910390f35b61025a6004803603810190610255919061105c565b610912565b005b610264610a1f565b60405161027191906113b3565b60405180910390f35b610294600480360381019061028f919061105c565b610b95565b005b80600260003373ffffffffffffffffffffffffffffffffffffffff1673ffffffffffffffffffffffffffffffffffffffff168152602001908152602001600020600082815260200190815260200160002060009054906101000a900460ff16610334576040517f08c379a000000000000000000000000000000000000000000000000000000000815260040161032b90611447565b60405180910390fd5b81600360003373ffffffffffffffffffffffffffffffffffffffff1673ffffffffffffffffffffffffffffffffffffffff168152602001908152602001600020600082815260200190815260200160002060009054906101000a900460ff16156103d3576040517f08c379a00000000000000000000000000000000000000000000000000000000081526004016103ca906114b3565b60405180910390fd5b60016005600085815260200190815260200160002060008282546103f79190611502565b925050819055506001600360003373ffffffffffffffffffffffffffffffffffffffff1673ffffffffffffffffffffffffffffffffffffffff168152602001908152602001600020600085815260200190815260200160002060006101000a81548160ff0219169083151502179055507ff668ead05c744b9178e571d2edb452e72baf6529c8d72160e64e59b50d865bd03384604051610498929190611558565b60405180910390a1505050565b600481815481106104b557600080fd5b9060005260206000200160009150905080546104d0906115b0565b80601f01602080910402602001604051908101604052809291908181526020018280546104fc906115b0565b80156105495780601f1061051e57610100808354040283529160200191610549565b820191906000526020600020905b81548152906001019060200180831161052c57829003601f168201915b505050505081565b60036020528160005260406000206020528060005260406000206000915091509054906101000a900460ff1681565b610588610c8d565b73ffffffffffffffffffffffffffffffffffffffff166105a66108e9565b73ffffffffffffffffffffffffffffffffffffffff16146105fc576040517f08c379a00000000000000000000000000000000000000000000000000000000081526004016105f39061162e565b60405180910390fd5b600160048054905061060e919061164e565b821115610650576040517f08c379a0000000000000000000000000000000000000000000000000000000008152600401610647906116ce565b60405180910390fd5b6001600260008373ffffffffffffffffffffffffffffffffffffffff1673ffffffffffffffffffffffffffffffffffffffff168152602001908152602001600020600084815260200190815260200160002060006101000a81548160ff0219169083151502179055507fc8d856acb0aea482a3609dcef90a6562bdf37d894165507bada7a82366ae7b5081836040516106ea929190611558565b60405180910390a15050565b60026020528160005260406000206020528060005260406000206000915091509054906101000a900460ff1681565b60016020528060005260406000206000915054906101000a900460ff1681565b60056020528060005260406000206000915090505481565b610765610c8d565b73ffffffffffffffffffffffffffffffffffffffff166107836108e9565b73ffffffffffffffffffffffffffffffffffffffff16146107d9576040517f08c379a00000000000000000000000000000000000000000000000000000000081526004016107d09061162e565b60405180910390fd5b6107e36000610c95565b565b600160003373ffffffffffffffffffffffffffffffffffffffff1673ffffffffffffffffffffffffffffffffffffffff16815260200190815260200160002060009054906101000a900460ff16610871576040517f08c379a00000000000000000000000000000000000000000000000000000000081526004016108689061173a565b60405180910390fd5b6004819080600181540180825580915050600190039060005260206000200160009091909190915090805190602001906108ac929190610d59565b507f748c79ce21dbb8fcc4e5ab538a8c267c08b8107aa8fa1f4090548cfe22801b6633826040516108de92919061175a565b60405180910390a150565b60008060009054906101000a900473ffffffffffffffffffffffffffffffffffffffff16905090565b61091a610c8d565b73ffffffffffffffffffffffffffffffffffffffff166109386108e9565b73ffffffffffffffffffffffffffffffffffffffff161461098e576040517f08c379a00000000000000000000000000000000000000000000000000000000081526004016109859061162e565b60405180910390fd5b60018060008373ffffffffffffffffffffffffffffffffffffffff1673ffffffffffffffffffffffffffffffffffffffff16815260200190815260200160002060006101000a81548160ff0219169083151502179055507f195b625c2a1c06b15b61a2cfbc2b6085caf543977671323f044de6bdd81e330a81604051610a149190611240565b60405180910390a150565b6060600060048054905067ffffffffffffffff811115610a4257610a416110bd565b5b604051908082528060200260200182016040528015610a7b57816020015b610a68610ddf565b815260200190600190039081610a605790505b50905060005b600480549050811015610b8d57604051806040016040528060048381548110610aad57610aac61178a565b5b906000526020600020018054610ac2906115b0565b80601f0160208091040260200160405190810160405280929190818152602001828054610aee906115b0565b8015610b3b5780601f10610b1057610100808354040283529160200191610b3b565b820191906000526020600020905b815481529060010190602001808311610b1e57829003601f168201915b505050505081526020016005600084815260200190815260200160002054815250828281518110610b6f57610b6e61178a565b5b60200260200101819052508080610b85906117b9565b915050610a81565b508091505090565b610b9d610c8d565b73ffffffffffffffffffffffffffffffffffffffff16610bbb6108e9565b73ffffffffffffffffffffffffffffffffffffffff1614610c11576040517f08c379a0000000000000000000000000000000000000000000000000000000008152600401610c089061162e565b60405180910390fd5b600073ffffffffffffffffffffffffffffffffffffffff168173ffffffffffffffffffffffffffffffffffffffff161415610c81576040517f08c379a0000000000000000000000000000000000000000000000000000000008152600401610c7890611874565b60405180910390fd5b610c8a81610c95565b50565b600033905090565b60008060009054906101000a900473ffffffffffffffffffffffffffffffffffffffff169050816000806101000a81548173ffffffffffffffffffffffffffffffffffffffff021916908373ffffffffffffffffffffffffffffffffffffffff1602179055508173ffffffffffffffffffffffffffffffffffffffff168173ffffffffffffffffffffffffffffffffffffffff167f8be0079c531659141344cd1fd0a4f28419497f9722a3daafe3b4186f6b6457e060405160405180910390a35050565b828054610d65906115b0565b90600052602060002090601f016020900481019282610d875760008555610dce565b82601f10610da057805160ff1916838001178555610dce565b82800160010185558215610dce579182015b82811115610dcd578251825591602001919060010190610db2565b5b509050610ddb9190610df9565b5090565b604051806040016040528060608152602001600081525090565b5b80821115610e12576000816000905550600101610dfa565b5090565b6000604051905090565b600080fd5b600080fd5b6000819050919050565b610e3d81610e2a565b8114610e4857600080fd5b50565b600081359050610e5a81610e34565b92915050565b600060208284031215610e7657610e75610e20565b5b6000610e8484828501610e4b565b91505092915050565b600081519050919050565b600082825260208201905092915050565b60005b83811015610ec7578082015181840152602081019050610eac565b83811115610ed6576000848401525b50505050565b6000601f19601f8301169050919050565b6000610ef882610e8d565b610f028185610e98565b9350610f12818560208601610ea9565b610f1b81610edc565b840191505092915050565b60006020820190508181036000830152610f408184610eed565b905092915050565b600073ffffffffffffffffffffffffffffffffffffffff82169050919050565b6000610f7382610f48565b9050919050565b610f8381610f68565b8114610f8e57600080fd5b50565b600081359050610fa081610f7a565b92915050565b60008060408385031215610fbd57610fbc610e20565b5b6000610fcb85828601610f91565b9250506020610fdc85828601610e4b565b9150509250929050565b60008115159050919050565b610ffb81610fe6565b82525050565b60006020820190506110166000830184610ff2565b92915050565b6000806040838503121561103357611032610e20565b5b600061104185828601610e4b565b925050602061105285828601610f91565b9150509250929050565b60006020828403121561107257611071610e20565b5b600061108084828501610f91565b91505092915050565b61109281610e2a565b82525050565b60006020820190506110ad6000830184611089565b92915050565b600080fd5b600080fd5b7f4e487b7100000000000000000000000000000000000000000000000000000000600052604160045260246000fd5b6110f582610edc565b810181811067ffffffffffffffff82111715611114576111136110bd565b5b80604052505050565b6000611127610e16565b905061113382826110ec565b919050565b600067ffffffffffffffff821115611153576111526110bd565b5b61115c82610edc565b9050602081019050919050565b82818337600083830152505050565b600061118b61118684611138565b61111d565b9050828152602081018484840111156111a7576111a66110b8565b5b6111b2848285611169565b509392505050565b600082601f8301126111cf576111ce6110b3565b5b81356111df848260208601611178565b91505092915050565b6000602082840312156111fe576111fd610e20565b5b600082013567ffffffffffffffff81111561121c5761121b610e25565b5b611228848285016111ba565b91505092915050565b61123a81610f68565b82525050565b60006020820190506112556000830184611231565b92915050565b600081519050919050565b600082825260208201905092915050565b6000819050602082019050919050565b600082825260208201905092915050565b60006112a382610e8d565b6112ad8185611287565b93506112bd818560208601610ea9565b6112c681610edc565b840191505092915050565b6112da81610e2a565b82525050565b600060408301600083015184820360008601526112fd8282611298565b915050602083015161131260208601826112d1565b508091505092915050565b600061132983836112e0565b905092915050565b6000602082019050919050565b60006113498261125b565b6113538185611266565b93508360208202850161136585611277565b8060005b858110156113a15784840389528151611382858261131d565b945061138d83611331565b925060208a01995050600181019050611369565b50829750879550505050505092915050565b600060208201905081810360008301526113cd818461133e565b905092915050565b7f55736572206973206e6f74206175746f72697a656420746f20766f746520696e60008201527f20746869732050726f706f73616c000000000000000000000000000000000000602082015250565b6000611431602e83610e98565b915061143c826113d5565b604082019050919050565b6000602082019050818103600083015261146081611424565b9050919050565b7f596f75206861766520616c726561647920766f74656400000000000000000000600082015250565b600061149d601683610e98565b91506114a882611467565b602082019050919050565b600060208201905081810360008301526114cc81611490565b9050919050565b7f4e487b7100000000000000000000000000000000000000000000000000000000600052601160045260246000fd5b600061150d82610e2a565b915061151883610e2a565b9250827fffffffffffffffffffffffffffffffffffffffffffffffffffffffffffffffff0382111561154d5761154c6114d3565b5b828201905092915050565b600060408201905061156d6000830185611231565b61157a6020830184611089565b9392505050565b7f4e487b7100000000000000000000000000000000000000000000000000000000600052602260045260246000fd5b600060028204905060018216806115c857607f821691505b602082108114156115dc576115db611581565b5b50919050565b7f4f776e61626c653a2063616c6c6572206973206e6f7420746865206f776e6572600082015250565b6000611618602083610e98565b9150611623826115e2565b602082019050919050565b600060208201905081810360008301526116478161160b565b9050919050565b600061165982610e2a565b915061166483610e2a565b925082821015611677576116766114d3565b5b828203905092915050565b7f546869732070726f706f73616c206e6f74206578697374000000000000000000600082015250565b60006116b8601783610e98565b91506116c382611682565b602082019050919050565b600060208201905081810360008301526116e7816116ab565b9050919050565b7f55736572206973206e6f74206175746f72697a656420746f2070726f706f7365600082015250565b6000611724602083610e98565b915061172f826116ee565b602082019050919050565b6000602082019050818103600083015261175381611717565b9050919050565b600060408201905061176f6000830185611231565b81810360208301526117818184610eed565b90509392505050565b7f4e487b7100000000000000000000000000000000000000000000000000000000600052603260045260246000fd5b60006117c482610e2a565b91507fffffffffffffffffffffffffffffffffffffffffffffffffffffffffffffffff8214156117f7576117f66114d3565b5b600182019050919050565b7f4f776e61626c653a206e6577206f776e657220697320746865207a65726f206160008201527f6464726573730000000000000000000000000000000000000000000000000000602082015250565b600061185e602683610e98565b915061186982611802565b604082019050919050565b6000602082019050818103600083015261188d81611851565b905091905056fea264697066735822122049e04e42a5afdb359671bff3d403ac3dfd30d3643fa8bf77eac1ab8b0f56110664736f6c634300080b0033",
  "immutableReferences": {},
  "source": "// SPDX-License-Identifier: MIT\npragma solidity >=0.4.22 <0.9.0;\n\nimport \"../node_modules/@openzeppelin/contracts/access/Ownable.sol\";\nimport \"../node_modules/@openzeppelin/contracts/utils/math/SafeMath.sol\";\n\nstruct Proposal {\n    string proposal;\n    uint256 votes;\n}\n\ncontract ProposalsVoting is Ownable {\n    mapping(address => bool) public autorizedUsersToPropose;\n    mapping(address => mapping(uint256 => bool)) public proposalAutorizarions;\n    mapping(address => mapping(uint256 => bool)) public proposalUserVotes;\n    string[] public proposals;\n    mapping(uint256 => uint256) public votes;\n\n    event AutorizePropose(address user);\n    event IncludeProposal(address user, string proposal);\n    event AutorizeUserToVoteInProposal(address user, uint256 proposal);\n    event Vote(address user, uint256 proposal);\n\n    modifier onlyAutorizedToPropose() {\n        require(\n            autorizedUsersToPropose[msg.sender],\n            \"User is not autorized to propose\"\n        );\n        _;\n    }\n\n    modifier onlyAutorizedToVote(uint256 _proposal) {\n        require(\n            proposalAutorizarions[msg.sender][_proposal],\n            \"User is not autorized to vote in this Proposal\"\n        );\n        _;\n    }\n\n    modifier justOneVoteByProposal(uint256 _proposal) {\n        require(\n            !proposalUserVotes[msg.sender][_proposal],\n            \"You have already voted\"\n        );\n        _;\n    }\n\n    /* this autorization is necessary to add proposal, user can vote if autorized vote even though don't can propose */\n    function autorizePropose(address _user) public onlyOwner {\n        autorizedUsersToPropose[_user] = true;\n        emit AutorizePropose(_user);\n    }\n\n    function includeProposal(string memory _proposal)\n        public\n        onlyAutorizedToPropose\n    {\n        proposals.push(_proposal);\n        emit IncludeProposal(msg.sender, _proposal);\n    }\n\n    /* this autorization to voto don't autorize add _proposal */\n    function autorizeUserToVoteInProposal(uint256 _proposal, address _user)\n        public\n        onlyOwner\n    {\n        require(_proposal <= (proposals.length - 1), \"This proposal not exist\");\n        proposalAutorizarions[_user][_proposal] = true;\n        emit AutorizeUserToVoteInProposal(_user, _proposal);\n    }\n\n    function vote(uint256 _proposal)\n        public\n        onlyAutorizedToVote(_proposal)\n        justOneVoteByProposal(_proposal)\n    {\n        votes[_proposal] += 1;\n        proposalUserVotes[msg.sender][_proposal] = true;\n        emit Vote(msg.sender, _proposal);\n    }\n\n    function getPoposalVotes() public view returns (Proposal[] memory) {\n        Proposal[] memory listProposals = new Proposal[](proposals.length);\n        for (uint256 i = 0; i < proposals.length; i++) {\n            listProposals[i] = Proposal(proposals[i], votes[i]);\n        }\n        return listProposals;\n    }\n}\n",
  "sourcePath": "/home/patane/DEV/web3/StudyDAO/contracts/ProposalsVoting.sol",
  "compiler": {
    "name": "solc",
    "version": "0.8.11+commit.d7f03943.Emscripten.clang"
  },
  "schemaVersion": "3.4.4",
  "updatedAt": "2022-01-27T17:12:43.293Z",
  "devdoc": {
    "kind": "dev",
    "methods": {
      "owner()": {
        "details": "Returns the address of the current owner."
      },
      "renounceOwnership()": {
        "details": "Leaves the contract without owner. It will not be possible to call `onlyOwner` functions anymore. Can only be called by the current owner. NOTE: Renouncing ownership will leave the contract without an owner, thereby removing any functionality that is only available to the owner."
      },
      "transferOwnership(address)": {
        "details": "Transfers ownership of the contract to a new account (`newOwner`). Can only be called by the current owner."
      }
    },
    "version": 1
  },
  "userdoc": {
    "kind": "user",
    "methods": {},
    "version": 1
  }
}